{
  "_format": "hh-sol-artifact-1",
  "contractName": "NFTMarket",
  "sourceName": "contracts/Market.sol",
  "abi": [
    {
      "inputs": [],
      "stateMutability": "nonpayable",
      "type": "constructor"
    },
    {
      "anonymous": false,
      "inputs": [
        {
          "indexed": true,
          "internalType": "address",
          "name": "owner",
          "type": "address"
        },
        {
          "indexed": true,
          "internalType": "address",
          "name": "approved",
          "type": "address"
        },
        {
          "indexed": true,
          "internalType": "uint256",
          "name": "tokenId",
          "type": "uint256"
        }
      ],
      "name": "Approval",
      "type": "event"
    },
    {
      "anonymous": false,
      "inputs": [
        {
          "indexed": true,
          "internalType": "address",
          "name": "owner",
          "type": "address"
        },
        {
          "indexed": true,
          "internalType": "address",
          "name": "operator",
          "type": "address"
        },
        {
          "indexed": false,
          "internalType": "bool",
          "name": "approved",
          "type": "bool"
        }
      ],
      "name": "ApprovalForAll",
      "type": "event"
    },
    {
      "anonymous": false,
      "inputs": [
        {
          "indexed": true,
          "internalType": "uint256",
          "name": "tokenId",
          "type": "uint256"
        },
        {
          "indexed": false,
          "internalType": "string",
          "name": "tokenURI",
          "type": "string"
        },
        {
          "indexed": false,
          "internalType": "uint256",
          "name": "collectionId",
          "type": "uint256"
        },
        {
          "indexed": false,
          "internalType": "string",
          "name": "title",
          "type": "string"
        },
        {
          "indexed": false,
          "internalType": "string",
          "name": "desc",
          "type": "string"
        },
        {
          "indexed": false,
          "internalType": "address",
          "name": "seller",
          "type": "address"
        },
        {
          "indexed": false,
          "internalType": "address",
          "name": "owner",
          "type": "address"
        },
        {
          "indexed": false,
          "internalType": "uint256",
          "name": "price",
          "type": "uint256"
        },
        {
          "indexed": false,
          "internalType": "bool",
          "name": "sold",
          "type": "bool"
        }
      ],
      "name": "MarketItemCreated",
      "type": "event"
    },
    {
      "anonymous": false,
      "inputs": [
        {
          "indexed": true,
          "internalType": "address",
          "name": "from",
          "type": "address"
        },
        {
          "indexed": true,
          "internalType": "address",
          "name": "to",
          "type": "address"
        },
        {
          "indexed": true,
          "internalType": "uint256",
          "name": "tokenId",
          "type": "uint256"
        }
      ],
      "name": "Transfer",
      "type": "event"
    },
    {
      "inputs": [
        {
          "internalType": "address",
          "name": "to",
          "type": "address"
        },
        {
          "internalType": "uint256",
          "name": "tokenId",
          "type": "uint256"
        }
      ],
      "name": "approve",
      "outputs": [],
      "stateMutability": "nonpayable",
      "type": "function"
    },
    {
      "inputs": [
        {
          "internalType": "address",
          "name": "owner",
          "type": "address"
        }
      ],
      "name": "balanceOf",
      "outputs": [
        {
          "internalType": "uint256",
          "name": "",
          "type": "uint256"
        }
      ],
      "stateMutability": "view",
      "type": "function"
    },
    {
      "inputs": [
        {
          "internalType": "uint256",
          "name": "tokenId",
          "type": "uint256"
        }
      ],
      "name": "createMarketSale",
      "outputs": [],
      "stateMutability": "payable",
      "type": "function"
    },
    {
      "inputs": [
        {
          "internalType": "string",
          "name": "tokenURI",
          "type": "string"
        },
        {
          "internalType": "string",
          "name": "title",
          "type": "string"
        },
        {
          "internalType": "string",
          "name": "desc",
          "type": "string"
        },
        {
          "internalType": "uint256",
          "name": "collectionId",
          "type": "uint256"
        },
        {
          "internalType": "uint256",
          "name": "price",
          "type": "uint256"
        }
      ],
      "name": "createToken",
      "outputs": [
        {
          "internalType": "uint256",
          "name": "",
          "type": "uint256"
        }
      ],
      "stateMutability": "payable",
      "type": "function"
    },
    {
      "inputs": [
        {
          "internalType": "uint256",
          "name": "tokenId",
          "type": "uint256"
        }
      ],
      "name": "fetchItemProperty",
      "outputs": [
        {
          "components": [
            {
              "internalType": "uint256",
              "name": "tokenId",
              "type": "uint256"
            },
            {
              "internalType": "string",
              "name": "tokenURI",
              "type": "string"
            },
            {
              "internalType": "uint256",
              "name": "collectionId",
              "type": "uint256"
            },
            {
              "internalType": "string",
              "name": "title",
              "type": "string"
            },
            {
              "internalType": "string",
              "name": "desc",
              "type": "string"
            },
            {
              "internalType": "address payable",
              "name": "seller",
              "type": "address"
            },
            {
              "internalType": "address payable",
              "name": "owner",
              "type": "address"
            },
            {
              "internalType": "uint256",
              "name": "price",
              "type": "uint256"
            },
            {
              "internalType": "bool",
              "name": "sold",
              "type": "bool"
            }
          ],
          "internalType": "struct NFTMarketplace.MarketItem[]",
          "name": "",
          "type": "tuple[]"
        }
      ],
      "stateMutability": "view",
      "type": "function"
    },
    {
      "inputs": [],
      "name": "fetchItemsListed",
      "outputs": [
        {
          "components": [
            {
              "internalType": "uint256",
              "name": "tokenId",
              "type": "uint256"
            },
            {
              "internalType": "string",
              "name": "tokenURI",
              "type": "string"
            },
            {
              "internalType": "uint256",
              "name": "collectionId",
              "type": "uint256"
            },
            {
              "internalType": "string",
              "name": "title",
              "type": "string"
            },
            {
              "internalType": "string",
              "name": "desc",
              "type": "string"
            },
            {
              "internalType": "address payable",
              "name": "seller",
              "type": "address"
            },
            {
              "internalType": "address payable",
              "name": "owner",
              "type": "address"
            },
            {
              "internalType": "uint256",
              "name": "price",
              "type": "uint256"
            },
            {
              "internalType": "bool",
              "name": "sold",
              "type": "bool"
            }
          ],
          "internalType": "struct NFTMarketplace.MarketItem[]",
          "name": "",
          "type": "tuple[]"
        }
      ],
      "stateMutability": "view",
      "type": "function"
    },
    {
      "inputs": [],
      "name": "fetchMarketItems",
      "outputs": [
        {
          "components": [
            {
              "internalType": "uint256",
              "name": "tokenId",
              "type": "uint256"
            },
            {
              "internalType": "string",
              "name": "tokenURI",
              "type": "string"
            },
            {
              "internalType": "uint256",
              "name": "collectionId",
              "type": "uint256"
            },
            {
              "internalType": "string",
              "name": "title",
              "type": "string"
            },
            {
              "internalType": "string",
              "name": "desc",
              "type": "string"
            },
            {
              "internalType": "address payable",
              "name": "seller",
              "type": "address"
            },
            {
              "internalType": "address payable",
              "name": "owner",
              "type": "address"
            },
            {
              "internalType": "uint256",
              "name": "price",
              "type": "uint256"
            },
            {
              "internalType": "bool",
              "name": "sold",
              "type": "bool"
            }
          ],
          "internalType": "struct NFTMarketplace.MarketItem[]",
          "name": "",
          "type": "tuple[]"
        }
      ],
      "stateMutability": "view",
      "type": "function"
    },
    {
      "inputs": [],
      "name": "fetchMyNFTs",
      "outputs": [
        {
          "components": [
            {
              "internalType": "uint256",
              "name": "tokenId",
              "type": "uint256"
            },
            {
              "internalType": "string",
              "name": "tokenURI",
              "type": "string"
            },
            {
              "internalType": "uint256",
              "name": "collectionId",
              "type": "uint256"
            },
            {
              "internalType": "string",
              "name": "title",
              "type": "string"
            },
            {
              "internalType": "string",
              "name": "desc",
              "type": "string"
            },
            {
              "internalType": "address payable",
              "name": "seller",
              "type": "address"
            },
            {
              "internalType": "address payable",
              "name": "owner",
              "type": "address"
            },
            {
              "internalType": "uint256",
              "name": "price",
              "type": "uint256"
            },
            {
              "internalType": "bool",
              "name": "sold",
              "type": "bool"
            }
          ],
          "internalType": "struct NFTMarketplace.MarketItem[]",
          "name": "",
          "type": "tuple[]"
        }
      ],
      "stateMutability": "view",
      "type": "function"
    },
    {
      "inputs": [
        {
          "internalType": "uint256",
          "name": "tokenId",
          "type": "uint256"
        }
      ],
      "name": "getApproved",
      "outputs": [
        {
          "internalType": "address",
          "name": "",
          "type": "address"
        }
      ],
      "stateMutability": "view",
      "type": "function"
    },
    {
      "inputs": [],
      "name": "getListingPrice",
      "outputs": [
        {
          "internalType": "uint256",
          "name": "",
          "type": "uint256"
        }
      ],
      "stateMutability": "view",
      "type": "function"
    },
    {
      "inputs": [
        {
          "internalType": "address",
          "name": "owner",
          "type": "address"
        },
        {
          "internalType": "address",
          "name": "operator",
          "type": "address"
        }
      ],
      "name": "isApprovedForAll",
      "outputs": [
        {
          "internalType": "bool",
          "name": "",
          "type": "bool"
        }
      ],
      "stateMutability": "view",
      "type": "function"
    },
    {
      "inputs": [],
      "name": "name",
      "outputs": [
        {
          "internalType": "string",
          "name": "",
          "type": "string"
        }
      ],
      "stateMutability": "view",
      "type": "function"
    },
    {
      "inputs": [
        {
          "internalType": "uint256",
          "name": "tokenId",
          "type": "uint256"
        }
      ],
      "name": "ownerOf",
      "outputs": [
        {
          "internalType": "address",
          "name": "",
          "type": "address"
        }
      ],
      "stateMutability": "view",
      "type": "function"
    },
    {
      "inputs": [
        {
          "internalType": "uint256",
          "name": "tokenId",
          "type": "uint256"
        },
        {
          "internalType": "uint256",
          "name": "price",
          "type": "uint256"
        }
      ],
      "name": "resellToken",
      "outputs": [],
      "stateMutability": "payable",
      "type": "function"
    },
    {
      "inputs": [
        {
          "internalType": "address",
          "name": "from",
          "type": "address"
        },
        {
          "internalType": "address",
          "name": "to",
          "type": "address"
        },
        {
          "internalType": "uint256",
          "name": "tokenId",
          "type": "uint256"
        }
      ],
      "name": "safeTransferFrom",
      "outputs": [],
      "stateMutability": "nonpayable",
      "type": "function"
    },
    {
      "inputs": [
        {
          "internalType": "address",
          "name": "from",
          "type": "address"
        },
        {
          "internalType": "address",
          "name": "to",
          "type": "address"
        },
        {
          "internalType": "uint256",
          "name": "tokenId",
          "type": "uint256"
        },
        {
          "internalType": "bytes",
          "name": "_data",
          "type": "bytes"
        }
      ],
      "name": "safeTransferFrom",
      "outputs": [],
      "stateMutability": "nonpayable",
      "type": "function"
    },
    {
      "inputs": [
        {
          "internalType": "address",
          "name": "operator",
          "type": "address"
        },
        {
          "internalType": "bool",
          "name": "approved",
          "type": "bool"
        }
      ],
      "name": "setApprovalForAll",
      "outputs": [],
      "stateMutability": "nonpayable",
      "type": "function"
    },
    {
      "inputs": [
        {
          "internalType": "bytes4",
          "name": "interfaceId",
          "type": "bytes4"
        }
      ],
      "name": "supportsInterface",
      "outputs": [
        {
          "internalType": "bool",
          "name": "",
          "type": "bool"
        }
      ],
      "stateMutability": "view",
      "type": "function"
    },
    {
      "inputs": [],
      "name": "symbol",
      "outputs": [
        {
          "internalType": "string",
          "name": "",
          "type": "string"
        }
      ],
      "stateMutability": "view",
      "type": "function"
    },
    {
      "inputs": [
        {
          "internalType": "uint256",
          "name": "tokenId",
          "type": "uint256"
        }
      ],
      "name": "tokenURI",
      "outputs": [
        {
          "internalType": "string",
          "name": "",
          "type": "string"
        }
      ],
      "stateMutability": "view",
      "type": "function"
    },
    {
      "inputs": [
        {
          "internalType": "address",
          "name": "from",
          "type": "address"
        },
        {
          "internalType": "address",
          "name": "to",
          "type": "address"
        },
        {
          "internalType": "uint256",
          "name": "tokenId",
          "type": "uint256"
        }
      ],
      "name": "transferFrom",
      "outputs": [],
      "stateMutability": "nonpayable",
      "type": "function"
    },
    {
      "inputs": [
        {
          "internalType": "uint256",
          "name": "_listingPrice",
          "type": "uint256"
        }
      ],
      "name": "updateListingPrice",
      "outputs": [],
      "stateMutability": "payable",
      "type": "function"
    }
  ],
  "bytecode": "0x60806040526004361061016a5760003560e01c80636352211e116100cb578063ae677aa31161007f578063c87b56dd11610059578063c87b56dd146103a6578063e219fc75146103c6578063e985e9c5146103d957600080fd5b8063ae677aa314610360578063b88d4fde14610373578063be9af5361461039357600080fd5b806372b3b620116100b057806372b3b6201461031857806395d89b411461032b578063a22cb4651461034057600080fd5b80636352211e146102d857806370a08231146102f857600080fd5b806312e855851161012257806323b872dd1161010757806323b872dd1461028357806342842e0e146102a357806345f8fa80146102c357600080fd5b806312e855851461024f578063202e37401461026e57600080fd5b8063081812fc11610153578063081812fc146101c6578063095ea7b31461020b5780630f08efe01461022d57600080fd5b806301ffc9a71461016f57806306fdde03146101a4575b600080fd5b34801561017b57600080fd5b5061018f61018a36600461257a565b61042f565b60405190151581526020015b60405180910390f35b3480156101b057600080fd5b506101b9610514565b60405161019b919061260d565b3480156101d257600080fd5b506101e66101e1366004612620565b6105a6565b60405173ffffffffffffffffffffffffffffffffffffffff909116815260200161019b565b34801561021757600080fd5b5061022b610226366004612662565b61066b565b005b34801561023957600080fd5b506102426107c4565b60405161019b919061268c565b34801561025b57600080fd5b506009545b60405190815260200161019b565b34801561027a57600080fd5b50610242610994565b34801561028f57600080fd5b5061022b61029e366004612715565b610baf565b3480156102af57600080fd5b5061022b6102be366004612715565b610c36565b3480156102cf57600080fd5b50610242610c51565b3480156102e457600080fd5b506101e66102f3366004612620565b610e6c565b34801561030457600080fd5b50610260610313366004612751565b610f04565b61026061032636600461282f565b610fb8565b34801561033757600080fd5b506101b9610ffa565b34801561034c57600080fd5b5061022b61035b366004612888565b611009565b61022b61036e366004612620565b611018565b34801561037f57600080fd5b5061022b61038e3660046128c4565b6110aa565b61022b6103a1366004612620565b611138565b3480156103b257600080fd5b506101b96103c1366004612620565b6112fa565b61022b6103d4366004612940565b61149a565b3480156103e557600080fd5b5061018f6103f4366004612962565b73ffffffffffffffffffffffffffffffffffffffff918216600090815260056020908152604080832093909416825291909152205460ff1690565b60007fffffffff0000000000000000000000000000000000000000000000000000000082167f80ac58cd0000000000000000000000000000000000000000000000000000000014806104c257507fffffffff0000000000000000000000000000000000000000000000000000000082167f5b5e139f00000000000000000000000000000000000000000000000000000000145b8061050e57507f01ffc9a7000000000000000000000000000000000000000000000000000000007fffffffff000000000000000000000000000000000000000000000000000000008316145b92915050565b60606000805461052390612995565b80601f016020809104026020016040519081016040528092919081815260200182805461054f90612995565b801561059c5780601f106105715761010080835404028352916020019161059c565b820191906000526020600020905b81548152906001019060200180831161057f57829003601f168201915b5050505050905090565b60008181526002602052604081205473ffffffffffffffffffffffffffffffffffffffff166106425760405162461bcd60e51b815260206004820152602c60248201527f4552433732313a20617070726f76656420717565727920666f72206e6f6e657860448201527f697374656e7420746f6b656e000000000000000000000000000000000000000060648201526084015b60405180910390fd5b5060009081526004602052604090205473ffffffffffffffffffffffffffffffffffffffff1690565b600061067682610e6c565b90508073ffffffffffffffffffffffffffffffffffffffff168373ffffffffffffffffffffffffffffffffffffffff16141561071a5760405162461bcd60e51b815260206004820152602160248201527f4552433732313a20617070726f76616c20746f2063757272656e74206f776e6560448201527f72000000000000000000000000000000000000000000000000000000000000006064820152608401610639565b3373ffffffffffffffffffffffffffffffffffffffff82161480610743575061074381336103f4565b6107b55760405162461bcd60e51b815260206004820152603860248201527f4552433732313a20617070726f76652063616c6c6572206973206e6f74206f7760448201527f6e6572206e6f7220617070726f76656420666f7220616c6c00000000000000006064820152608401610639565b6107bf838361163d565b505050565b606060006107d160075490565b905060006107de60085490565b6007546107eb9190612a18565b90506000808267ffffffffffffffff8111156108095761080961276c565b60405190808252806020026020018201604052801561088057816020015b6040805160a0810182526000808252602080830182905292820181905260608201819052608082015282527fffffffffffffffffffffffffffffffffffffffffffffffffffffffffffffffff9092019101816108275790505b50905060005b8481101561098b5730600b600061089e846001612a2f565b815260208101919091526040016000206002015473ffffffffffffffffffffffffffffffffffffffff1614156109795760006108db826001612a2f565b6000818152600b6020908152604091829020825160a08101845281548152600182015473ffffffffffffffffffffffffffffffffffffffff9081169382019390935260028201549092169282019290925260038201546060820152600482015460ff16151560808201528551929350909185908790811061095e5761095e612a47565b6020908102919091010152610974600186612a2f565b945050505b8061098381612a76565b915050610886565b50949350505050565b606060006109a160075490565b905060008060005b83811015610a115733600b60006109c1846001612a2f565b815260208101919091526040016000206002015473ffffffffffffffffffffffffffffffffffffffff1614156109ff576109fc600184612a2f565b92505b80610a0981612a76565b9150506109a9565b5060008267ffffffffffffffff811115610a2d57610a2d61276c565b604051908082528060200260200182016040528015610aa457816020015b6040805160a0810182526000808252602080830182905292820181905260608201819052608082015282527fffffffffffffffffffffffffffffffffffffffffffffffffffffffffffffffff909201910181610a4b5790505b50905060005b8481101561098b5733600b6000610ac2846001612a2f565b815260208101919091526040016000206002015473ffffffffffffffffffffffffffffffffffffffff161415610b9d576000610aff826001612a2f565b6000818152600b6020908152604091829020825160a08101845281548152600182015473ffffffffffffffffffffffffffffffffffffffff9081169382019390935260028201549092169282019290925260038201546060820152600482015460ff161515608082015285519293509091859087908110610b8257610b82612a47565b6020908102919091010152610b98600186612a2f565b945050505b80610ba781612a76565b915050610aaa565b610bb933826116dd565b610c2b5760405162461bcd60e51b815260206004820152603160248201527f4552433732313a207472616e736665722063616c6c6572206973206e6f74206f60448201527f776e6572206e6f7220617070726f7665640000000000000000000000000000006064820152608401610639565b6107bf83838361182f565b6107bf838383604051806020016040528060008152506110aa565b60606000610c5e60075490565b905060008060005b83811015610cce5733600b6000610c7e846001612a2f565b815260208101919091526040016000206001015473ffffffffffffffffffffffffffffffffffffffff161415610cbc57610cb9600184612a2f565b92505b80610cc681612a76565b915050610c66565b5060008267ffffffffffffffff811115610cea57610cea61276c565b604051908082528060200260200182016040528015610d6157816020015b6040805160a0810182526000808252602080830182905292820181905260608201819052608082015282527fffffffffffffffffffffffffffffffffffffffffffffffffffffffffffffffff909201910181610d085790505b50905060005b8481101561098b5733600b6000610d7f846001612a2f565b815260208101919091526040016000206001015473ffffffffffffffffffffffffffffffffffffffff161415610e5a576000610dbc826001612a2f565b6000818152600b6020908152604091829020825160a08101845281548152600182015473ffffffffffffffffffffffffffffffffffffffff9081169382019390935260028201549092169282019290925260038201546060820152600482015460ff161515608082015285519293509091859087908110610e3f57610e3f612a47565b6020908102919091010152610e55600186612a2f565b945050505b80610e6481612a76565b915050610d67565b60008181526002602052604081205473ffffffffffffffffffffffffffffffffffffffff168061050e5760405162461bcd60e51b815260206004820152602960248201527f4552433732313a206f776e657220717565727920666f72206e6f6e657869737460448201527f656e7420746f6b656e00000000000000000000000000000000000000000000006064820152608401610639565b600073ffffffffffffffffffffffffffffffffffffffff8216610f8f5760405162461bcd60e51b815260206004820152602a60248201527f4552433732313a2062616c616e636520717565727920666f7220746865207a6560448201527f726f2061646472657373000000000000000000000000000000000000000000006064820152608401610639565b5073ffffffffffffffffffffffffffffffffffffffff1660009081526003602052604090205490565b6000610fc8600780546001019055565b6000610fd360075490565b9050610fdf3382611a62565b610fe98185611bf0565b610ff38184611ca6565b9392505050565b60606001805461052390612995565b611014338383611e94565b5050565b600a5473ffffffffffffffffffffffffffffffffffffffff1633146110a55760405162461bcd60e51b815260206004820152603060248201527f4f6e6c79206d61726b6574706c616365206f776e65722063616e20757064617460448201527f65206c697374696e672070726963652e000000000000000000000000000000006064820152608401610639565b600955565b6110b433836116dd565b6111265760405162461bcd60e51b815260206004820152603160248201527f4552433732313a207472616e736665722063616c6c6572206973206e6f74206f60448201527f776e6572206e6f7220617070726f7665640000000000000000000000000000006064820152608401610639565b61113284848484611fa8565b50505050565b6000818152600b60205260409020600381015460019091015473ffffffffffffffffffffffffffffffffffffffff163482146111de576040805162461bcd60e51b81526020600482015260248101919091527f506c65617365207375626d6974207468652061736b696e67207072696365206960448201527f6e206f7264657220746f20636f6d706c657465207468652070757263686173656064820152608401610639565b6000838152600b602052604090206002810180547fffffffffffffffffffffffff000000000000000000000000000000000000000090811633179091556004820180547fffffffffffffffffffffffffffffffffffffffffffffffffffffffffffffff0016600190811790915590910180549091169055611263600880546001019055565b61126e30338561182f565b600a5460095460405173ffffffffffffffffffffffffffffffffffffffff9092169181156108fc0291906000818181858888f193505050501580156112b7573d6000803e3d6000fd5b5060405173ffffffffffffffffffffffffffffffffffffffff8216903480156108fc02916000818181858888f19350505050158015611132573d6000803e3d6000fd5b60008181526002602052604090205460609073ffffffffffffffffffffffffffffffffffffffff166113945760405162461bcd60e51b815260206004820152603160248201527f45524337323155524953746f726167653a2055524920717565727920666f722060448201527f6e6f6e6578697374656e7420746f6b656e0000000000000000000000000000006064820152608401610639565b600082815260066020526040812080546113ad90612995565b80601f01602080910402602001604051908101604052809291908181526020018280546113d990612995565b80156114265780601f106113fb57610100808354040283529160200191611426565b820191906000526020600020905b81548152906001019060200180831161140957829003601f168201915b50505050509050600061144460408051602081019091526000815290565b9050805160001415611457575092915050565b815115611489578082604051602001611471929190612aaf565b60405160208183030381529060405292505050919050565b61149284612031565b949350505050565b6000828152600b602052604090206002015473ffffffffffffffffffffffffffffffffffffffff1633146115365760405162461bcd60e51b815260206004820152602a60248201527f4f6e6c79206974656d206f776e65722063616e20706572666f726d207468697360448201527f206f7065726174696f6e000000000000000000000000000000000000000000006064820152608401610639565b60095434146115ac5760405162461bcd60e51b8152602060048201526024808201527f5072696365206d75737420626520657175616c20746f206c697374696e67207060448201527f72696365000000000000000000000000000000000000000000000000000000006064820152608401610639565b6000828152600b602052604090206004810180547fffffffffffffffffffffffffffffffffffffffffffffffffffffffffffffff00169055600381018290556001810180547fffffffffffffffffffffffff0000000000000000000000000000000000000000908116331790915560029091018054909116301790556116326008612133565b61101433308461182f565b600081815260046020526040902080547fffffffffffffffffffffffff00000000000000000000000000000000000000001673ffffffffffffffffffffffffffffffffffffffff8416908117909155819061169782610e6c565b73ffffffffffffffffffffffffffffffffffffffff167f8c5be1e5ebec7d5bd14f71427d1e84f3dd0314c0f7b2291e5b200ac8c7c3b92560405160405180910390a45050565b60008181526002602052604081205473ffffffffffffffffffffffffffffffffffffffff166117745760405162461bcd60e51b815260206004820152602c60248201527f4552433732313a206f70657261746f7220717565727920666f72206e6f6e657860448201527f697374656e7420746f6b656e00000000000000000000000000000000000000006064820152608401610639565b600061177f83610e6c565b90508073ffffffffffffffffffffffffffffffffffffffff168473ffffffffffffffffffffffffffffffffffffffff1614806117ee57508373ffffffffffffffffffffffffffffffffffffffff166117d6846105a6565b73ffffffffffffffffffffffffffffffffffffffff16145b80611492575073ffffffffffffffffffffffffffffffffffffffff80821660009081526005602090815260408083209388168352929052205460ff16611492565b8273ffffffffffffffffffffffffffffffffffffffff1661184f82610e6c565b73ffffffffffffffffffffffffffffffffffffffff16146118d85760405162461bcd60e51b815260206004820152602560248201527f4552433732313a207472616e736665722066726f6d20696e636f72726563742060448201527f6f776e65720000000000000000000000000000000000000000000000000000006064820152608401610639565b73ffffffffffffffffffffffffffffffffffffffff82166119605760405162461bcd60e51b8152602060048201526024808201527f4552433732313a207472616e7366657220746f20746865207a65726f2061646460448201527f72657373000000000000000000000000000000000000000000000000000000006064820152608401610639565b61196b60008261163d565b73ffffffffffffffffffffffffffffffffffffffff831660009081526003602052604081208054600192906119a1908490612a18565b909155505073ffffffffffffffffffffffffffffffffffffffff821660009081526003602052604081208054600192906119dc908490612a2f565b909155505060008181526002602052604080822080547fffffffffffffffffffffffff00000000000000000000000000000000000000001673ffffffffffffffffffffffffffffffffffffffff86811691821790925591518493918716917fddf252ad1be2c89b69c2b068fc378daa952ba7f163c4a11628f55a4df523b3ef91a4505050565b73ffffffffffffffffffffffffffffffffffffffff8216611ac55760405162461bcd60e51b815260206004820181905260248201527f4552433732313a206d696e7420746f20746865207a65726f20616464726573736044820152606401610639565b60008181526002602052604090205473ffffffffffffffffffffffffffffffffffffffff1615611b375760405162461bcd60e51b815260206004820152601c60248201527f4552433732313a20746f6b656e20616c7265616479206d696e746564000000006044820152606401610639565b73ffffffffffffffffffffffffffffffffffffffff82166000908152600360205260408120805460019290611b6d908490612a2f565b909155505060008181526002602052604080822080547fffffffffffffffffffffffff00000000000000000000000000000000000000001673ffffffffffffffffffffffffffffffffffffffff861690811790915590518392907fddf252ad1be2c89b69c2b068fc378daa952ba7f163c4a11628f55a4df523b3ef908290a45050565b60008281526002602052604090205473ffffffffffffffffffffffffffffffffffffffff16611c875760405162461bcd60e51b815260206004820152602e60248201527f45524337323155524953746f726167653a2055524920736574206f66206e6f6e60448201527f6578697374656e7420746f6b656e0000000000000000000000000000000000006064820152608401610639565b600082815260066020908152604090912082516107bf928401906124b0565b60008111611cf65760405162461bcd60e51b815260206004820152601c60248201527f5072696365206d757374206265206174206c65617374203120776569000000006044820152606401610639565b6009543414611d6c5760405162461bcd60e51b8152602060048201526024808201527f5072696365206d75737420626520657175616c20746f206c697374696e67207060448201527f72696365000000000000000000000000000000000000000000000000000000006064820152608401610639565b6040805160a08101825283815233602080830182815230848601818152606086018881526000608088018181528b8252600b909652979097209551865591516001860180547fffffffffffffffffffffffff000000000000000000000000000000000000000090811673ffffffffffffffffffffffffffffffffffffffff9384161790915592516002870180549094169116179091559351600384015551600490920180547fffffffffffffffffffffffffffffffffffffffffffffffffffffffffffffff001692151592909217909155611e47918461182f565b604080513381523060208201529081018290526000606082015282907fb640004f1d14576d0c209e240cad0410e0d8c0c33a09375861fbadae2588a98d9060800160405180910390a25050565b8173ffffffffffffffffffffffffffffffffffffffff168373ffffffffffffffffffffffffffffffffffffffff161415611f105760405162461bcd60e51b815260206004820152601960248201527f4552433732313a20617070726f766520746f2063616c6c6572000000000000006044820152606401610639565b73ffffffffffffffffffffffffffffffffffffffff83811660008181526005602090815260408083209487168084529482529182902080547fffffffffffffffffffffffffffffffffffffffffffffffffffffffffffffff001686151590811790915591519182527f17307eab39ab6107e8899845ad3d59bd9653f200f220920489ca2b5937696c31910160405180910390a3505050565b611fb384848461182f565b611fbf848484846121a8565b6111325760405162461bcd60e51b815260206004820152603260248201527f4552433732313a207472616e7366657220746f206e6f6e20455243373231526560448201527f63656976657220696d706c656d656e74657200000000000000000000000000006064820152608401610639565b60008181526002602052604090205460609073ffffffffffffffffffffffffffffffffffffffff166120cb5760405162461bcd60e51b815260206004820152602f60248201527f4552433732314d657461646174613a2055524920717565727920666f72206e6f60448201527f6e6578697374656e7420746f6b656e00000000000000000000000000000000006064820152608401610639565b60006120e260408051602081019091526000815290565b905060008151116121025760405180602001604052806000815250610ff3565b8061210c8461237e565b60405160200161211d929190612aaf565b6040516020818303038152906040529392505050565b8054806121825760405162461bcd60e51b815260206004820152601b60248201527f436f756e7465723a2064656372656d656e74206f766572666c6f7700000000006044820152606401610639565b7fffffffffffffffffffffffffffffffffffffffffffffffffffffffffffffffff019055565b600073ffffffffffffffffffffffffffffffffffffffff84163b15612373576040517f150b7a0200000000000000000000000000000000000000000000000000000000815273ffffffffffffffffffffffffffffffffffffffff85169063150b7a029061221f903390899088908890600401612ade565b6020604051808303816000875af1925050508015612278575060408051601f3d9081017fffffffffffffffffffffffffffffffffffffffffffffffffffffffffffffffe016820190925261227591810190612b27565b60015b612328573d8080156122a6576040519150601f19603f3d011682016040523d82523d6000602084013e6122ab565b606091505b5080516123205760405162461bcd60e51b815260206004820152603260248201527f4552433732313a207472616e7366657220746f206e6f6e20455243373231526560448201527f63656976657220696d706c656d656e74657200000000000000000000000000006064820152608401610639565b805181602001fd5b7fffffffff00000000000000000000000000000000000000000000000000000000167f150b7a0200000000000000000000000000000000000000000000000000000000149050611492565b506001949350505050565b6060816123be57505060408051808201909152600181527f3000000000000000000000000000000000000000000000000000000000000000602082015290565b8160005b81156123e857806123d281612a76565b91506123e19050600a83612b73565b91506123c2565b60008167ffffffffffffffff8111156124035761240361276c565b6040519080825280601f01601f19166020018201604052801561242d576020820181803683370190505b5090505b841561149257612442600183612a18565b915061244f600a86612b87565b61245a906030612a2f565b60f81b81838151811061246f5761246f612a47565b60200101907effffffffffffffffffffffffffffffffffffffffffffffffffffffffffffff1916908160001a9053506124a9600a86612b73565b9450612431565b8280546124bc90612995565b90600052602060002090601f0160209004810192826124de5760008555612524565b82601f106124f757805160ff1916838001178555612524565b82800160010185558215612524579182015b82811115612524578251825591602001919060010190612509565b50612530929150612534565b5090565b5b808211156125305760008155600101612535565b7fffffffff000000000000000000000000000000000000000000000000000000008116811461257757600080fd5b50565b60006020828403121561258c57600080fd5b8135610ff381612549565b60005b838110156125b257818101518382015260200161259a565b838111156111325750506000910152565b600081518084526125db816020860160208601612597565b601f017fffffffffffffffffffffffffffffffffffffffffffffffffffffffffffffffe0169290920160200192915050565b602081526000610ff360208301846125c3565b60006020828403121561263257600080fd5b5035919050565b803573ffffffffffffffffffffffffffffffffffffffff8116811461265d57600080fd5b919050565b6000806040838503121561267557600080fd5b61267e83612639565b946020939093013593505050565b602080825282518282018190526000919060409081850190868401855b82811015612708578151805185528681015173ffffffffffffffffffffffffffffffffffffffff908116888701528682015116868601526060808201519086015260809081015115159085015260a090930192908501906001016126a9565b5091979650505050505050565b60008060006060848603121561272a57600080fd5b61273384612639565b925061274160208501612639565b9150604084013590509250925092565b60006020828403121561276357600080fd5b610ff382612639565b7f4e487b7100000000000000000000000000000000000000000000000000000000600052604160045260246000fd5b600067ffffffffffffffff808411156127b6576127b661276c565b604051601f85017fffffffffffffffffffffffffffffffffffffffffffffffffffffffffffffffe0908116603f011681019082821181831017156127fc576127fc61276c565b8160405280935085815286868601111561281557600080fd5b858560208301376000602087830101525050509392505050565b6000806040838503121561284257600080fd5b823567ffffffffffffffff81111561285957600080fd5b8301601f8101851361286a57600080fd5b6128798582356020840161279b565b95602094909401359450505050565b6000806040838503121561289b57600080fd5b6128a483612639565b9150602083013580151581146128b957600080fd5b809150509250929050565b600080600080608085870312156128da57600080fd5b6128e385612639565b93506128f160208601612639565b925060408501359150606085013567ffffffffffffffff81111561291457600080fd5b8501601f8101871361292557600080fd5b6129348782356020840161279b565b91505092959194509250565b6000806040838503121561295357600080fd5b50508035926020909101359150565b6000806040838503121561297557600080fd5b61297e83612639565b915061298c60208401612639565b90509250929050565b600181811c908216806129a957607f821691505b602082108114156129e3577f4e487b7100000000000000000000000000000000000000000000000000000000600052602260045260246000fd5b50919050565b7f4e487b7100000000000000000000000000000000000000000000000000000000600052601160045260246000fd5b600082821015612a2a57612a2a6129e9565b500390565b60008219821115612a4257612a426129e9565b500190565b7f4e487b7100000000000000000000000000000000000000000000000000000000600052603260045260246000fd5b60007fffffffffffffffffffffffffffffffffffffffffffffffffffffffffffffffff821415612aa857612aa86129e9565b5060010190565b60008351612ac1818460208801612597565b835190830190612ad5818360208801612597565b01949350505050565b600073ffffffffffffffffffffffffffffffffffffffff808716835280861660208401525083604083015260806060830152612b1d60808301846125c3565b9695505050505050565b600060208284031215612b3957600080fd5b8151610ff381612549565b7f4e487b7100000000000000000000000000000000000000000000000000000000600052601260045260246000fd5b600082612b8257612b82612b44565b500490565b600082612b9657612b96612b44565b50069056fea26469706673582212206312fbccedbaa0a00ee8cb4d7c25ae1385c7ec47c31a7258319021b7499f855664736f6c634300080c0033",
  "linkReferences": {},
  "deployedLinkReferences": {}
}